:020000040000fa
:080000000002040000000000f2
:020000040000fa
:04000800c80200002a
:020000040000fa
:04000c00c802000026
:020000040000fa
:04001000c802000022
:020000040000fa
:04001400c80200001e
:020000040000fa
:04001800c80200001a
:020000040000fa
:04001c00c802000016
:020000040000fa
:04002000c802000012
:020000040000fa
:04002400c80200000e
:020000040000fa
:04002800c80200000a
:020000040000fa
:04002c00c802000006
:020000040000fa
:04003000c802000002
:020000040000fa
:04003400c8020000fe
:020000040000fa
:04003800c8020000fa
:020000040000fa
:04003c00c8020000f6
:020000040000fa
:04004000c8020000f2
:020000040000fa
:04004400c8020000ee
:020000040000fa
:04004800c8020000ea
:020000040000fa
:04004c00c8020000e6
:020000040000fa
:04005000c8020000e2
:020000040000fa
:04005400c8020000de
:020000040000fa
:04005800c8020000da
:020000040000fa
:04005c00c8020000d6
:020000040000fa
:04006000c8020000d2
:020000040000fa
:04006400c8020000ce
:020000040000fa
:04006800c8020000ca
:020000040000fa
:04006c00c8020000c6
:020000040000fa
:04007000c8020000c2
:020000040000fa
:04007400c8020000be
:020000040000fa
:04007800c8020000ba
:020000040000fa
:04007c00c8020000b6
:020000040000fa
:04008000c8020000b2
:020000040000fa
:04008400c8020000ae
:020000040000fa
:04008800c8020000aa
:020000040000fa
:04008c00c8020000a6
:020000040000fa
:04009000c8020000a2
:020000040000fa
:04009400c80200009e
:020000040000fa
:04009800c80200009a
:020000040000fa
:04009c00c802000096
:020000040000fa
:0400a000c802000092
:020000040000fa
:0400a400c80200008e
:020000040000fa
:0400a800c80200008a
:020000040000fa
:0400ac00c802000086
:020000040000fa
:0400b000c802000082
:020000040000fa
:0400b400c80200007e
:020000040000fa
:0400b800c80200007a
:020000040000fa
:0400bc00c802000076
:020000040000fa
:0400c000c802000072
:020000040000fa
:0400c400c80200006e
:020000040000fa
:0400c800c80200006a
:020000040000fa
:0400cc00c802000066
:020000040000fa
:0400d000c802000062
:020000040000fa
:0400d400c80200005e
:020000040000fa
:0400d800c80200005a
:020000040000fa
:0400dc00c802000056
:020000040000fa
:0400e000c802000052
:020000040000fa
:0400e400c80200004e
:020000040000fa
:0400e800c80200004a
:020000040000fa
:0400ec00c802000046
:020000040000fa
:0400f000c802000042
:020000040000fa
:0400f400c80200003e
:020000040000fa
:0400f800c80200003a
:020000040000fa
:0400fc00c802000036
:020000040000fa
:04010000c802000031
:020000040000fa
:04010400c80200002d
:020000040000fa
:04010800c802000029
:020000040000fa
:04010c00c802000025
:020000040000fa
:04011000c802000021
:020000040000fa
:04011400c80200001d
:020000040000fa
:04011800c802000019
:020000040000fa
:04011c00c802000015
:020000040000fa
:04012000c802000011
:020000040000fa
:04012400c80200000d
:020000040000fa
:04012800c802000009
:020000040000fa
:04012c00c802000005
:020000040000fa
:04013000c802000001
:020000040000fa
:04013400c8020000fd
:020000040000fa
:04013800c8020000f9
:020000040000fa
:04013c00c8020000f5
:020000040000fa
:04014000c8020000f1
:020000040000fa
:04014400c8020000ed
:020000040000fa
:04014800c8020000e9
:020000040000fa
:04014c00c8020000e5
:020000040000fa
:04015000c8020000e1
:020000040000fa
:04015400c8020000dd
:020000040000fa
:04015800c8020000d9
:020000040000fa
:04015c00c8020000d5
:020000040000fa
:04016000c8020000d1
:020000040000fa
:04016400c8020000cd
:020000040000fa
:04016800c8020000c9
:020000040000fa
:04016c00c8020000c5
:020000040000fa
:04017000c8020000c1
:020000040000fa
:04017400c8020000bd
:020000040000fa
:04017800c8020000b9
:020000040000fa
:04017c00c8020000b5
:020000040000fa
:04018000c8020000b1
:020000040000fa
:04018400c8020000ad
:020000040000fa
:04018800c8020000a9
:020000040000fa
:04018c00c8020000a5
:020000040000fa
:04019000c8020000a1
:020000040000fa
:04019400c80200009d
:020000040000fa
:04019800c802000099
:020000040000fa
:04019c00c802000095
:020000040000fa
:04020800c802000028
:020000040000fa
:04020c00c802000024
:020000040000fa
:04021000c802000020
:020000040000fa
:04021400c80200001c
:020000040000fa
:04021800c802000018
:020000040000fa
:04021c00c802000014
:020000040000fa
:04022000c802000010
:020000040000fa
:04022400c80200000c
:020000040000fa
:04022800c802000008
:020000040000fa
:04022c00c802000004
:020000040000fa
:04023000c802000000
:020000040000fa
:04023400c8020000fc
:020000040000fa
:04023800c8020000f8
:020000040000fa
:04023c00c8020000f4
:020000040000fa
:04024000c8020000f0
:020000040000fa
:04024400c8020000ec
:020000040000fa
:04024800c8020000e8
:020000040000fa
:04024c00c8020000e4
:020000040000fa
:04025000c8020000e0
:020000040000fa
:04025400c8020000dc
:020000040000fa
:04025800c8020000d8
:020000040000fa
:04025c00c8020000d4
:020000040000fa
:04026000c8020000d0
:020000040000fa
:04026400c8020000cc
:020000040000fa
:04026800c8020000c8
:020000040000fa
:04026c00c8020000c4
:020000040000fa
:04027000c8020000c0
:020000040000fa
:04027400c8020000bc
:020000040000fa
:04027800c8020000b8
:020000040000fa
:04027c00c8020000b4
:020000040000fa
:04028000c8020000b0
:020000040000fa
:04028400c8020000ac
:020000040000fa
:04028800c8020000a8
:020000040000fa
:04028c00c8020000a4
:020000040000fa
:04029000c8020000a0
:020000040000fa
:04029400c80200009c
:020000040000fa
:04029800c802000098
:020000040000fa
:04029c00c802000094
:020000040000fa
:0402a000c802000090
:020000040000fa
:0402a400c80200008c
:020000040000fa
:0402a800c802000088
:020000040000fa
:0402ac00c802000084
:020000040000fa
:0402b000c802000080
:020000040000fa
:0402b400c80200007c
:020000040000fa
:0402b800c802000078
:020000040000fa
:0402bc00c802000074
:020000040000fa
:0402c000c802000070
:020000040000fa
:0402c400c80200006c
:020000040000fa
:0402c800c802000068
:020000040000fa
:0402cc00c802000064
:020000040000fa
:0402d000c802000060
:020000040000fa
:0402d400c80200005c
:020000040000fa
:0402d800c802000058
:020000040000fa
:0402dc00c802000054
:020000040000fa
:0402e000c802000050
:020000040000fa
:0402e400c80200004c
:020000040000fa
:0402e800c802000048
:020000040000fa
:0402ec00c802000044
:020000040000fa
:0402f000c802000040
:020000040000fa
:0402f400c80200003c
:020000040000fa
:0402f800c802000038
:020000040000fa
:0402fc00c802000034
:020000040000fa
:04030000c80200002f
:020000040000fa
:04030400c80200002b
:020000040000fa
:04030800c802000027
:020000040000fa
:04030c00c802000023
:020000040000fa
:04031000c80200001f
:020000040000fa
:04031400c80200001b
:020000040000fa
:04031800c802000017
:020000040000fa
:04031c00c802000013
:020000040000fa
:04032000c80200000f
:020000040000fa
:04032400c80200000b
:020000040000fa
:04032800c802000007
:020000040000fa
:04032c00c802000003
:020000040000fa
:04033000c8020000ff
:020000040000fa
:04033400c8020000fb
:020000040000fa
:04033800c8020000f7
:020000040000fa
:04033c00c8020000f3
:020000040000fa
:04034000c8020000ef
:020000040000fa
:04034400c8020000eb
:020000040000fa
:04034800c8020000e7
:020000040000fa
:04034c00c8020000e3
:020000040000fa
:04035000c8020000df
:020000040000fa
:04035400c8020000db
:020000040000fa
:04035800c8020000d7
:020000040000fa
:04035c00c8020000d3
:020000040000fa
:04036000c8020000cf
:020000040000fa
:04036400c8020000cb
:020000040000fa
:04036800c8020000c7
:020000040000fa
:04036c00c8020000c3
:020000040000fa
:04037000c8020000bf
:020000040000fa
:04037400c8020000bb
:020000040000fa
:04037800c8020000b7
:020000040000fa
:04037c00c8020000b3
:020000040000fa
:04038000c8020000af
:020000040000fa
:04038400c8020000ab
:020000040000fa
:04038800c8020000a7
:020000040000fa
:04038c00c8020000a3
:020000040000fa
:04039000c80200009f
:020000040000fa
:04039400c80200009b
:020000040000fa
:04039800c802000097
:020000040000fa
:04039c00c802000093
:020000040000fa
:100400002f8020000e7f24000e01880000000000d5
:10041000000020000000e000020032000001200087
:1004200020028800140007005b0007000000e000c5
:1004300003003a0040b9200001002000020037000c
:100440000000200001002000810f70000100320038
:1004500014000700000020000000e000020032004d
:100460000000020000000000e00a0200000000009e
:100470000040da000000fe004440a9000000200017
:100480000000e0000300320000002000a00188000e
:100490004440a800000006008a1f78008b1f7800e7
:1004a0000000060091018800800478000000eb0045
:1004b0001a003700e284440032a0b4009905ba0063
:1004c000e284440032a0b4009906ba00e2844400f9
:1004d00032a0b4000006eb00476fde00fd07b2005b
:1004e000636ce10003003a00ebff07000000eb0043
:1004f0000a003700606ce10004003a00005deb0088
:100500008b05e900fdff3e00040037006168e10053
:10051000010032000086eb000b00070019c7ba008b
:100520001905ba000e04e00003003a000a00e000da
:10053000e0ff3a0000000600fe07b2009e018800be
:100540008a047800f5ff3700395dba008b05e900b1
:100550000c003200295dba008b05e900080032006a
:100560000c00e00003003a00e284440032a0b40032
:10057000f5ff370019ddba008b05e900faff3a00f4
:100580008904e800e184440032a0b40000000600c1
:100590000040da000000fe00000005006022b80004
:1005a000060220000000d0008180d2000482d20028
:1005b0008582d2000000a0000202520083825a000d
:1005c000030031000202420083824a000000a100c1
:0c05d0000603e900f3ff3a0000000600fb
:020000040000fa
:1005dc000800fa002007980031079800be00900030
:1005ec00800720000088b900000178002e009000e0
:1005fc006000b9000000780000014100ae009000de
:10060c00800720000008b80001014100820078003a
:10061c00008fbe001e00be00c002b1000180b10000
:10062c00008fbe001e00be00e00f5000e08f58008f
:10063c0009003400040037001e00be006b0050009f
:10064c00e0805800008fbe001e00be00e00f50007e
:10065c00e08f5800f8ff3c000080fa000000060014
:10066c000400fa00100798000f00370040c0b300d8
:10067c00004f78000300370090012000010020009b
:10068c00d3ff07001e4078008080fb008100ea0049
:10069c00cf08de00814078000040e900004f780070
:1006ac000104e000f4ff3a001e00900000f0a700e7
:1006bc000000ea000000ea004f00de000040780075
:1006cc009e0090008100e900110798000004e000f2
:1006dc00e6ff3a000080fa00000006000200fa0073
:1006ec00004f78001e80fb004030880011308000e5
:1006fc0000002800008060000000e000fbff3a00d2
:10070c000080fa00000006000200fa004030800071
:10071c00004f78001130800000002800008060003d
:10072c000000e000fbff3a0001e6a9004030800029
:10073c00004f780001e6a8001e4078000080fa0007
:10074c00000006000200fa0040308000004f7800e4
:10075c001130800000002800008060000000e000e4
:10076c00fbff3a001e4078000080fa0000000600f3
:10077c000400fa0041308000010f78001e00780060
:10078c004800dd00000f78001130800000002800c8
:10079c00008060000000e000fbff3a004030800069
:1007ac00204798002e4090000080fb001e0f600038
:1007bc001130800000002800008060000000e00084
:1007cc00fbff3a001e0078000080fa0000000600d3
:1007dc000400fa003005200001002000008fbe004c
:1007ec00dc42a900d842a900c9e2a900dd62a80038
:1007fc00d962a9000226ef000c26ef000026ef00bc
:10080c0011308000f0cf2f00008060000090a0001d
:10081c001030880011308000f0f32f000080600051
:10082c0010308800c0022000010020001e01be0014
:10083c00800f5100818f5900060036001130800066
:10084c0030fc2f00008060000020a00010308800d9
:10085c0015003700c0022000010020001e01be0060
:10086c00800f5100818f59000f003e001e01be0009
:10087c00d00220000100200045ff07000040780056
:10088c000040e8006f4060000080fb006f006000db
:10089c004200dd001230800031fc2f00810061002d
:1008ac0001007000103088001e01be00e000200026
:1008bc0001002000800f5100818f59000500360087
:1008cc0011308000c0ff2f000080600010308800c5
:1008dc00140037001e01be00e000200001002000c3
:1008ec00800f5100818f59000e003e001e01be008a
:1008fc00f00020000100200025ff070000407800d8
:10090c000040e800634060000080fb006300600072
:10091c0012308000c1ff2f008100610001007000c7
:10092c00103088000346a9000126a8000030800082
:10093c004900de00614060000080fb006100600047
:10094c004800dd00013080000180a1000100700032
:10095c000030880001e6a800dc42a8000080fa0004
:10096c00000006001e00fa003005200001002000e7
:10097c00008fbe00dc42a900d842a900c9e2a90040
:10098c00dd62a800d962a9000226ef000c26ef0058
:10099c000026ef0011308000f0cf2f0000806000a7
:1009ac000090a0001030880011308000f0f32f0070
:1009bc000080600010308800c00220000100200080
:1009cc001e01be00800f5100818f590006003600b9
:1009dc001130800030fc2f00008060000020a0004f
:1009ec001030880015003700c002200001002000e4
:1009fc001e01be00800f5100818f59000f003e0078
:100a0c001e01be00d002200001002000e0fe070005
:100a1c00004078000040e8006f4060000080fb0060
:100a2c006f0060004200dd001230800031fc2f00ae
:100a3c008100610001007000103088001e01be00b2
:100a4c00e000200001002000800f5100818f590030
:100a5c000500360011308000c0ff2f0000806000c0
:100a6c0010308800140037001e01be00e00020008a
:100a7c0001002000800f5100818f59000e003e00b4
:100a8c001e01be00f000200001002000c0fe070087
:100a9c00004078000040e800634060000080fb00ec
:100aac006300600012308000c1ff2f0081006100e4
:100abc0001007000103088000346a9000126a80030
:100acc00003080004900de00614060000080fb00c7
:100adc00610060004800dd00013080000180a10051
:100aec00010070000030880001e6a800dc42a8007c
:100afc00dd62a900cde2a900e0cab300404798002e
:100b0c004e4090000080fb00403088001130800087
:100b1c0000002800008060000000e000fbff3a00ad
:100b2c00b0cdb300504798005e4090000080fb00b1
:100b3c0040308800113080000000280000806000e8
:100b4c000000e000fbff3a0030c2b30060479800a1
:100b5c006e4090000080fb00403088001130800017
:100b6c0000002800008060000000e000fbff3a005d
:100b7c0090cdb300704798007e4090000080fb0041
:100b8c004030880011308000000028000080600098
:100b9c000000e000fbff3a0020c2b300004f9800b9
:100bac000e4890000080fb0040308800113080001f
:100bbc0000002800008060000000e000fbff3a000d
:100bcc0010cab300104f98001e4890000080fb0024
:100bdc004030880011308000000028000080600048
:100bec000000e000fbff3a0080ccb300204f9800df
:100bfc002e4890000080fb004030880011308000af
:100c0c0000002800008060000000e000fbff3a00bc
:100c1c00a0cdb300304f98003e4890000080fb0000
:100c2c0040308800113080000000280000806000f7
:100c3c000000e000fbff3a0020c1b300404f9800d9
:100c4c004e4890000080fb0040308800113080003e
:100c5c0000002800008060000000e000fbff3a006c
:100c6c0080cab300504f98005e4890000080fb0093
:100c7c0040308800113080000000280000806000a7
:100c8c000000e000fbff3a00f0c3b300604f980097
:100c9c006e4890000080fb004030880011308000ce
:100cac0000002800008060000000e000fbff3a001c
:100cbc0050cdb300704f98007e4890000080fb0030
:100ccc004030880011308000000028000080600057
:100cdc000000e000fbff3a0000cab3000057980088
:100cec000e5090000080fb004030880011308000d6
:100cfc0000002800008060000000e000fbff3a00cc
:100d0c0010c8b300105798001e5090000080fb00d4
:100d1c004030880011308000000028000080600006
:100d2c000000e000fbff3a0000c6b300205798001b
:100d3c002e5090000080fb00403088001130800065
:100d4c0000002800008060000000e000fbff3a007b
:100d5c0030cdb300305798003e5090000080fb001f
:100d6c0040308800113080000000280000806000b6
:100d7c000000e000fbff3a000040eb0040579800f9
:100d8c004e5090000080fb004030880011308000f5
:100d9c0000002800008060000000e000fbff3a002b
:100dac0060cab300505798005e5090000080fb0062
:100dbc004030880011308000000028000080600066
:100dcc000000e000fbff3a00d0cab3006057980067
:100ddc006e5090000080fb00403088001130800085
:100dec0000002800008060000000e000fbff3a00db
:100dfc00b0c8b300705798007e5090000080fb0084
:100e0c004030880011308000000028000080600015
:100e1c000000e000fbff3a00f0cab300005f98004e
:100e2c000e5890000080fb0040308800113080008c
:100e3c0000002800008060000000e000fbff3a008a
:100e4c006009200006fe070040cab300105f98003e
:100e5c001e5890000080fb0040308800113080004c
:100e6c0000002800008060000000e000fbff3a005a
:100e7c0000c4b300205f98002e5890000080fb0047
:100e8c004030880011308000000028000080600095
:100e9c000000e000fbff3a0020c0b300305f980078
:100eac003e5890000080fb004030880011308000dc
:100ebc0000002800008060000000e000fbff3a000a
:100ecc0000c1b300405f98004e5890000080fb00ba
:100edc004030880011308000000028000080600045
:100eec000000e000fbff3a0010002000dcfd0700d2
:100efc00dd62a800cde2a8000080fa000000060028
:100f0c001400fa00000f9800110f98001e089000b2
:100f1c00e70f500003003c0000cbb300004f7800fb
:100f2c00290037001e089000ef0f500003003c0012
:100f3c0010cbb300004f7800230037001e08900040
:100f4c00f70f500003003c0020cbb300004f78009b
:100f5c001d0037001e089000ff0f500003003c00de
:100f6c0030cbb300004f7800170037009e0890007c
:100f7c0070022000808f500003003c0040cbb30077
:100f8c00004f7800100037009e089000f0022000ff
:100f9c00808f500003003c0050cbb300004f780012
:100fac00090037009e08900070032000808f5000cd
:100fbc0003003c0060cbb300004f78000200370008
:100fcc0070cbb300004f78000e0890000040780002
:100fdc0000c0e800204798002e4090006f40600051
:100fec00304798002e4090000080fb004400de004b
:100ffc00004078000044a000404798001e08900074
:10100c004380de00204798002e4090004300dd0016
:10101c00204798001e089000804078002e409000d9
:10102c0000c05000204798002e4090000080fb002c
:10103c00110020000008dd0050479800dd62a90077
:10104c00cde2a9009e407800614798006e40900068
:10105c000080fb0040308800113080000000280028
:10106c00008060000000e000fbff3a00be409000f2
:10107c00714798007e4090000080fb004030880053
:10108c001130800000002800008060000000e000ab
:10109c00fbff3a00ce409000014f98000e489000a4
:1010ac000080fb00403088001130800000002800d8
:1010bc00008060000000e000fbff3a00cde2a800d9
:1010cc0040308000104f9800113080000000280044
:1010dc00008060000000e000fbff3a001e4890001a
:1010ec001047980040308000204f9800113080004d
:1010fc0000002800008060000000e000fbff3a00c8
:10110c002e4890001047980040308000304f9800d7
:10111c001130800000002800008060000000e0001a
:10112c00fbff3a003e4890001047980000c8bf00f3
:10113c000004e000050032009e4090005e409000ec
:10114c0000c0700010479800050037005e4090000a
:10115c0080c0ea001e40900000c06000104798005c
:10116c00cde2a9009e407800414f98004e48900077
:10117c000080fb0040308800113080000000280007
:10118c00008060000000e000fbff3a00be409000d1
:10119c00514f98005e4890000080fb004030880062
:1011ac001130800000002800008060000000e0008a
:1011bc00fbff3a00ce409000614f98006e489000c3
:1011cc000080fb00403088001130800000002800b7
:1011dc00008060000000e000fbff3a00cde2a800b8
:1011ec009e409000714f98007e4890000080fb005c
:1011fc004030880011308000000028000080600022
:10120c000000e000fbff3a00dd62a8000080fa005d
:10121c00000006001000fa006007980071079800a3
:10122c007e009000e70f500003003c0000cbb300a1
:10123c00004f7800290037007e009000ef0f50001f
:10124c0003003c0010cbb300004f780023003700a4
:10125c007e009000f70f500003003c0020cbb30041
:10126c00004f78001d0037007e009000ff0f5000eb
:10127c0003003c0030cbb300004f78001700370060
:10128c00fe00900070022000808f500003003c0094
:10129c0040cbb300004f780010003700fe009000e8
:1012ac00f0022000808f500003003c0050cbb300b4
:1012bc00004f780009003700fe00900070032000fa
:1012cc00808f500003003c0060cbb300004f7800cf
:1012dc000200370070cbb300004f78006e00900016
:1012ec000040780000c0e800104798001e409000b5
:1012fc006f406000204798001e4090000080fb006b
:10130c004400de00004078000044a0003047980004
:10131c007e0090004380de00404798004e409000d5
:10132c004300dd00404798007e009000804078002c
:10133c004e40900000c05000404798004e40900036
:10134c000080fb00110020000008dd0050479800d1
:10135c00dd62a900cde2a9009e407800714798009b
:10136c007e4090000080fb004030880011308000ef
:10137c0000002800008060000000e000fbff3a0045
:10138c00ae409000014f98000e4890000080fb008a
:10139c004030880011308000000028000080600080
:1013ac000000e000fbff3a00be409000114f980097
:1013bc001e4890000080fb004030880011308000f7
:1013cc0000002800008060000000e000fbff3a00f5
:1013dc00cde2a80040308000204f980011308000f2
:1013ec0000002800008060000000e000fbff3a00d5
:1013fc002e4890006047980040308000304f980095
:10140c001130800000002800008060000000e00027
:10141c00fbff3a0001e6a90040308000304f9800f5
:10142c0001e6a8003e48900060479800dd62a800e5
:10143c00ee4090005e40900000c060000080fa001a
:10144c00000006000600fa00dd62a90000cbb30024
:10145c00004f780035003700cde2a9009e4078009f
:10146c00214798002e4090000080fb0040308800ff
:10147c001130800000002800008060000000e000b7
:10148c00fbff3a000040eb00304798003e409000d4
:10149c000080fb00403088001130800000002800e4
:1014ac00008060000000e000fbff3a0000c1b300c8
:1014bc00404798004e4090000080fb004030880070
:1014cc001130800000002800008060000000e00067
:1014dc00fbff3a00cde2a8000040eb00104798005b
:1014ec000d00370000c8bf00504798005e409000c8
:1014fc000080fb0040308800113080000000280084
:10150c00008060000000e000fbff3a001e409000ed
:10151c000040e800104798009e40900030c8b3008f
:10152c0080cf5000efff36001e4fe80070cbb300a9
:10153c009e40780080cf5000c7ff3600dd62a800c7
:10154c000080fa00000006000400fa001007980062
:10155c002108800000032000010070002008880092
:10156c00f0022000100888000021ef0005e1a8001f
:10157c000000eb00000f78000700370000000000af
:10158c0020048000680060000000e000fcff3200d6
:10159c008460a9001e0fe8001e0090009e007800d9
:1015ac00808f5000f5ff390005e1a9000080fa009a
:1015bc00000006000600fa0020302300103a8800d4
:1015cc004427ef004006200020079800f0e2a90015
:1015dc00801780004700de00614060000080fb0047
:1015ec00610060004900dd00811780000190a100be
:1015fc000100700080178800801780004900de0011
:10160c00614060000080fb00610060004500dd006f
:10161c00411780000150a1000100700040178800a4
:10162c00eca2a800f522a800f4e2a800cdfc07006b
:10163c0084ff070000c0eb0000e8b7000040eb009f
:10164c00004f780010c1b3001047980010c0b300d1
:10165c002047980010c0b300304798001e409000ff
:10166c008080fb001e80fb0025fe0700f0c7b30046
:10167c009e40780080cf500002003a0000c0eb0082
:10168c00204798001e4078000004e00002003a0059
:10169c0010c0b300204798009e409000f0c3b300e8
:1016ac0080cf500002003a0000c0eb003047980099
:1016bc001e4090000004e00002003a0010c0b3008d
:1016cc00304798002e4090001e4f40009e409000e6
:1016dc003e40900000c04000104798002e00900043
:1016ec0099ff0700eca2a900f522a800f4e2a800db
:1016fc002e00900094ff0700eca2a800f522a90090
:10170c00f4e2a8002e0090008fff0700eca2a800c6
:0c171c00f522a800f4e2a900d0ff37007d
:020000040000fa
:1017280000080000020000000000000000000000a7
:020000040000fa
:020000040005f5
:0457f400ffff0000b3
:020000040000fa
:020000040005f5
:0457f8005e2300002c
:020000040000fa
:020000040005f5
:0457fc007f3e0000ec
:00000001FF
